{
  "contractName": "CharityDonation",
  "abi": [
    {
      "anonymous": false,
      "inputs": [
        {
          "indexed": true,
          "internalType": "address",
          "name": "donor",
          "type": "address"
        },
        {
          "indexed": true,
          "internalType": "address",
          "name": "charity",
          "type": "address"
        },
        {
          "indexed": false,
          "internalType": "uint256",
          "name": "amount",
          "type": "uint256"
        }
      ],
      "name": "DonationMade",
      "type": "event"
    },
    {
      "inputs": [
        {
          "internalType": "address",
          "name": "",
          "type": "address"
        }
      ],
      "name": "charityBalances",
      "outputs": [
        {
          "internalType": "uint256",
          "name": "",
          "type": "uint256"
        }
      ],
      "stateMutability": "view",
      "type": "function",
      "constant": true
    },
    {
      "inputs": [
        {
          "internalType": "address",
          "name": "",
          "type": "address"
        },
        {
          "internalType": "uint256",
          "name": "",
          "type": "uint256"
        }
      ],
      "name": "donationsByCharity",
      "outputs": [
        {
          "internalType": "address",
          "name": "donor",
          "type": "address"
        },
        {
          "internalType": "uint256",
          "name": "amount",
          "type": "uint256"
        }
      ],
      "stateMutability": "view",
      "type": "function",
      "constant": true
    },
    {
      "inputs": [],
      "name": "totalNumberOfDonations",
      "outputs": [
        {
          "internalType": "uint256",
          "name": "",
          "type": "uint256"
        }
      ],
      "stateMutability": "view",
      "type": "function",
      "constant": true
    },
    {
      "inputs": [
        {
          "internalType": "address",
          "name": "charity",
          "type": "address"
        }
      ],
      "name": "donate",
      "outputs": [],
      "stateMutability": "payable",
      "type": "function",
      "payable": true
    },
    {
      "inputs": [
        {
          "internalType": "address",
          "name": "charity",
          "type": "address"
        }
      ],
      "name": "getDonations",
      "outputs": [
        {
          "components": [
            {
              "internalType": "address",
              "name": "donor",
              "type": "address"
            },
            {
              "internalType": "uint256",
              "name": "amount",
              "type": "uint256"
            }
          ],
          "internalType": "struct CharityDonation.Donation[]",
          "name": "",
          "type": "tuple[]"
        }
      ],
      "stateMutability": "view",
      "type": "function",
      "constant": true
    },
    {
      "inputs": [
        {
          "internalType": "address",
          "name": "charity",
          "type": "address"
        }
      ],
      "name": "getCharityTotal",
      "outputs": [
        {
          "internalType": "uint256",
          "name": "",
          "type": "uint256"
        }
      ],
      "stateMutability": "view",
      "type": "function",
      "constant": true
    },
    {
      "inputs": [
        {
          "internalType": "address payable",
          "name": "charity",
          "type": "address"
        }
      ],
      "name": "withdraw",
      "outputs": [],
      "stateMutability": "nonpayable",
      "type": "function"
    }
  ],
  "bytecode": "0x608060405234801561001057600080fd5b50610b92806100206000396000f3fe60806040526004361061006f5760003560e01c806351cff8d91161004e57806351cff8d91461010a5780635e9d3d8f1461013357806379cf134a14610171578063c02f20a71461019c5761006f565b8062362a95146100745780631910bdc21461009057806345c41c6f146100cd575b600080fd5b61008e60048036038101906100899190610714565b6101d9565b005b34801561009c57600080fd5b506100b760048036038101906100b29190610714565b6103d7565b6040516100c49190610847565b60405180910390f35b3480156100d957600080fd5b506100f460048036038101906100ef9190610714565b6104d5565b6040516101019190610878565b60405180910390f35b34801561011657600080fd5b50610131600480360381019061012c91906108d1565b61051d565b005b34801561013f57600080fd5b5061015a6004803603810190610155919061092a565b610632565b604051610168929190610979565b60405180910390f35b34801561017d57600080fd5b50610186610693565b6040516101939190610878565b60405180910390f35b3480156101a857600080fd5b506101c360048036038101906101be9190610714565b610699565b6040516101d09190610878565b60405180910390f35b6000341161021c576040517f08c379a000000000000000000000000000000000000000000000000000000000815260040161021390610a25565b60405180910390fd5b600160008273ffffffffffffffffffffffffffffffffffffffff1673ffffffffffffffffffffffffffffffffffffffff16815260200190815260200160002060405180604001604052803373ffffffffffffffffffffffffffffffffffffffff16815260200134815250908060018154018082558091505060019003906000526020600020906002020160009091909190915060008201518160000160006101000a81548173ffffffffffffffffffffffffffffffffffffffff021916908373ffffffffffffffffffffffffffffffffffffffff160217905550602082015181600101555050346000808373ffffffffffffffffffffffffffffffffffffffff1673ffffffffffffffffffffffffffffffffffffffff16815260200190815260200160002060008282546103509190610a74565b925050819055506002600081548092919061036a90610aa8565b91905055508073ffffffffffffffffffffffffffffffffffffffff163373ffffffffffffffffffffffffffffffffffffffff167f70c6bc6cf53707fb5561feef795d557f7e46f57bd4f1a13ce36e9ffdf58d38bb346040516103cc9190610878565b60405180910390a350565b6060600160008373ffffffffffffffffffffffffffffffffffffffff1673ffffffffffffffffffffffffffffffffffffffff168152602001908152602001600020805480602002602001604051908101604052809291908181526020016000905b828210156104ca57838290600052602060002090600202016040518060400160405290816000820160009054906101000a900473ffffffffffffffffffffffffffffffffffffffff1673ffffffffffffffffffffffffffffffffffffffff1673ffffffffffffffffffffffffffffffffffffffff16815260200160018201548152505081526020019060010190610438565b505050509050919050565b60008060008373ffffffffffffffffffffffffffffffffffffffff1673ffffffffffffffffffffffffffffffffffffffff168152602001908152602001600020549050919050565b60008060008373ffffffffffffffffffffffffffffffffffffffff1673ffffffffffffffffffffffffffffffffffffffff168152602001908152602001600020549050600081116105a3576040517f08c379a000000000000000000000000000000000000000000000000000000000815260040161059a90610b3c565b60405180910390fd5b60008060008473ffffffffffffffffffffffffffffffffffffffff1673ffffffffffffffffffffffffffffffffffffffff168152602001908152602001600020819055508173ffffffffffffffffffffffffffffffffffffffff166108fc829081150290604051600060405180830381858888f1935050505015801561062d573d6000803e3d6000fd5b505050565b6001602052816000526040600020818154811061064e57600080fd5b9060005260206000209060020201600091509150508060000160009054906101000a900473ffffffffffffffffffffffffffffffffffffffff16908060010154905082565b60025481565b60006020528060005260406000206000915090505481565b600080fd5b600073ffffffffffffffffffffffffffffffffffffffff82169050919050565b60006106e1826106b6565b9050919050565b6106f1816106d6565b81146106fc57600080fd5b50565b60008135905061070e816106e8565b92915050565b60006020828403121561072a576107296106b1565b5b6000610738848285016106ff565b91505092915050565b600081519050919050565b600082825260208201905092915050565b6000819050602082019050919050565b610776816106d6565b82525050565b6000819050919050565b61078f8161077c565b82525050565b6040820160008201516107ab600085018261076d565b5060208201516107be6020850182610786565b50505050565b60006107d08383610795565b60408301905092915050565b6000602082019050919050565b60006107f482610741565b6107fe818561074c565b93506108098361075d565b8060005b8381101561083a57815161082188826107c4565b975061082c836107dc565b92505060018101905061080d565b5085935050505092915050565b6000602082019050818103600083015261086181846107e9565b905092915050565b6108728161077c565b82525050565b600060208201905061088d6000830184610869565b92915050565b600061089e826106b6565b9050919050565b6108ae81610893565b81146108b957600080fd5b50565b6000813590506108cb816108a5565b92915050565b6000602082840312156108e7576108e66106b1565b5b60006108f5848285016108bc565b91505092915050565b6109078161077c565b811461091257600080fd5b50565b600081359050610924816108fe565b92915050565b60008060408385031215610941576109406106b1565b5b600061094f858286016106ff565b925050602061096085828601610915565b9150509250929050565b610973816106d6565b82525050565b600060408201905061098e600083018561096a565b61099b6020830184610869565b9392505050565b600082825260208201905092915050565b7f446f6e6174696f6e20616d6f756e74206d75737420626520677265617465722060008201527f7468616e20300000000000000000000000000000000000000000000000000000602082015250565b6000610a0f6026836109a2565b9150610a1a826109b3565b604082019050919050565b60006020820190508181036000830152610a3e81610a02565b9050919050565b7f4e487b7100000000000000000000000000000000000000000000000000000000600052601160045260246000fd5b6000610a7f8261077c565b9150610a8a8361077c565b9250828201905080821115610aa257610aa1610a45565b5b92915050565b6000610ab38261077c565b91507fffffffffffffffffffffffffffffffffffffffffffffffffffffffffffffffff8203610ae557610ae4610a45565b5b600182019050919050565b7f4e6f2066756e647320746f207769746864726177000000000000000000000000600082015250565b6000610b266014836109a2565b9150610b3182610af0565b602082019050919050565b60006020820190508181036000830152610b5581610b19565b905091905056fea2646970667358221220e06aec9223c12406c7bba1866216d6cb78b67dadd3a9c6a347e9e15d2425cb7f64736f6c63430008130033",
  "immutableReferences": {},
  "source": "pragma solidity ^0.8.0;\r\n\r\ncontract CharityDonation {\r\n    struct Donation {\r\n        address donor;\r\n        uint256 amount;\r\n    }\r\n\r\n    mapping(address => uint256) public charityBalances;\r\n    mapping(address => Donation[]) public donationsByCharity;\r\n    uint256 public totalNumberOfDonations;\r\n\r\n    event DonationMade(address indexed donor, address indexed charity, uint256 amount);\r\n\r\n    function donate(address charity) public payable {\r\n        require(msg.value > 0, \"Donation amount must be greater than 0\");\r\n        donationsByCharity[charity].push(Donation(msg.sender, msg.value));\r\n        charityBalances[charity] += msg.value;\r\n        totalNumberOfDonations++;\r\n        emit DonationMade(msg.sender, charity, msg.value);\r\n    }\r\n\r\n    function getDonations(address charity) public view returns (Donation[] memory) {\r\n        return donationsByCharity[charity];\r\n    }\r\n\r\n    function getCharityTotal(address charity) public view returns (uint256) {\r\n        return charityBalances[charity];\r\n    }\r\n\r\n    function withdraw(address payable charity) public {\r\n        uint256 amount = charityBalances[charity];\r\n        require(amount > 0, \"No funds to withdraw\");\r\n        charityBalances[charity] = 0;\r\n        charity.transfer(amount);\r\n    }\r\n}\r\n",
  "sourcePath": "D:\\Semester 8\\Blockchain\\Blockchain project\\contracts\\charityDonation.sol",
  "compiler": {
    "name": "solc",
    "version": "0.8.19+commit.7dd6d404.Emscripten.clang"
  },
  "schemaVersion": "3.4.13",
  "updatedAt": "2023-04-30T17:50:10.244Z",
  "networkType": "ethereum",
  "devdoc": {
    "kind": "dev",
    "methods": {},
    "version": 1
  },
  "userdoc": {
    "kind": "user",
    "methods": {},
    "version": 1
  }
}